{
  "_format": "hh-sol-artifact-1",
  "contractName": "MedicalContract",
  "sourceName": "contracts/Medical.sol",
  "abi": [
    {
      "inputs": [
        {
          "internalType": "address",
          "name": "_healthTokenAddress",
          "type": "address"
        }
      ],
      "stateMutability": "nonpayable",
      "type": "constructor"
    },
    {
      "anonymous": false,
      "inputs": [
        {
          "indexed": false,
          "internalType": "address",
          "name": "doctorAddress",
          "type": "address"
        },
        {
          "indexed": false,
          "internalType": "string",
          "name": "name",
          "type": "string"
        },
        {
          "indexed": false,
          "internalType": "uint256",
          "name": "fees",
          "type": "uint256"
        }
      ],
      "name": "DoctorRegistered",
      "type": "event"
    },
    {
      "anonymous": false,
      "inputs": [
        {
          "indexed": true,
          "internalType": "address",
          "name": "patient",
          "type": "address"
        },
        {
          "indexed": true,
          "internalType": "address",
          "name": "doctor",
          "type": "address"
        },
        {
          "indexed": false,
          "internalType": "uint256",
          "name": "amount",
          "type": "uint256"
        }
      ],
      "name": "PaymentReceived",
      "type": "event"
    },
    {
      "anonymous": false,
      "inputs": [
        {
          "indexed": false,
          "internalType": "uint256",
          "name": "id",
          "type": "uint256"
        },
        {
          "indexed": false,
          "internalType": "address",
          "name": "doctorAddress",
          "type": "address"
        },
        {
          "indexed": false,
          "internalType": "address",
          "name": "patientAddress",
          "type": "address"
        }
      ],
      "name": "PrescriptionIssued",
      "type": "event"
    },
    {
      "anonymous": false,
      "inputs": [
        {
          "indexed": true,
          "internalType": "address",
          "name": "doctor",
          "type": "address"
        },
        {
          "indexed": false,
          "internalType": "uint256",
          "name": "tokenAmount",
          "type": "uint256"
        },
        {
          "indexed": false,
          "internalType": "uint256",
          "name": "ethAmount",
          "type": "uint256"
        }
      ],
      "name": "TokensWithdrawn",
      "type": "event"
    },
    {
      "inputs": [
        {
          "internalType": "address",
          "name": "",
          "type": "address"
        }
      ],
      "name": "doctors",
      "outputs": [
        {
          "internalType": "address",
          "name": "doctorAddress",
          "type": "address"
        },
        {
          "internalType": "string",
          "name": "name",
          "type": "string"
        },
        {
          "internalType": "string",
          "name": "speciality",
          "type": "string"
        },
        {
          "internalType": "uint256",
          "name": "fees",
          "type": "uint256"
        },
        {
          "internalType": "uint256",
          "name": "tokenBalance",
          "type": "uint256"
        },
        {
          "internalType": "bool",
          "name": "verified",
          "type": "bool"
        }
      ],
      "stateMutability": "view",
      "type": "function"
    },
    {
      "inputs": [
        {
          "internalType": "address",
          "name": "doctorAddress",
          "type": "address"
        }
      ],
      "name": "getDoctorFee",
      "outputs": [
        {
          "internalType": "uint256",
          "name": "",
          "type": "uint256"
        }
      ],
      "stateMutability": "view",
      "type": "function"
    },
    {
      "inputs": [],
      "name": "healthToken",
      "outputs": [
        {
          "internalType": "contract HealthToken",
          "name": "",
          "type": "address"
        }
      ],
      "stateMutability": "view",
      "type": "function"
    },
    {
      "inputs": [
        {
          "internalType": "address",
          "name": "patientAddress",
          "type": "address"
        },
        {
          "components": [
            {
              "internalType": "string",
              "name": "name",
              "type": "string"
            },
            {
              "internalType": "string",
              "name": "dosage",
              "type": "string"
            },
            {
              "internalType": "uint256",
              "name": "duration",
              "type": "uint256"
            },
            {
              "internalType": "string",
              "name": "additionalInstructions",
              "type": "string"
            }
          ],
          "internalType": "struct MedicalContract.Medication[]",
          "name": "medications",
          "type": "tuple[]"
        }
      ],
      "name": "issuePrescription",
      "outputs": [],
      "stateMutability": "nonpayable",
      "type": "function"
    },
    {
      "inputs": [
        {
          "internalType": "address",
          "name": "",
          "type": "address"
        }
      ],
      "name": "patients",
      "outputs": [
        {
          "internalType": "address",
          "name": "patientAddress",
          "type": "address"
        },
        {
          "internalType": "string",
          "name": "name",
          "type": "string"
        }
      ],
      "stateMutability": "view",
      "type": "function"
    },
    {
      "inputs": [
        {
          "internalType": "address",
          "name": "doctorAddress",
          "type": "address"
        },
        {
          "internalType": "uint256",
          "name": "amount",
          "type": "uint256"
        }
      ],
      "name": "payDoctor",
      "outputs": [],
      "stateMutability": "nonpayable",
      "type": "function"
    },
    {
      "inputs": [],
      "name": "prescriptionCounter",
      "outputs": [
        {
          "internalType": "uint256",
          "name": "",
          "type": "uint256"
        }
      ],
      "stateMutability": "view",
      "type": "function"
    },
    {
      "inputs": [
        {
          "internalType": "uint256",
          "name": "",
          "type": "uint256"
        }
      ],
      "name": "prescriptions",
      "outputs": [
        {
          "internalType": "uint256",
          "name": "id",
          "type": "uint256"
        },
        {
          "internalType": "address",
          "name": "doctorAddress",
          "type": "address"
        },
        {
          "internalType": "address",
          "name": "patientAddress",
          "type": "address"
        },
        {
          "internalType": "uint256",
          "name": "issueDate",
          "type": "uint256"
        },
        {
          "internalType": "bool",
          "name": "active",
          "type": "bool"
        }
      ],
      "stateMutability": "view",
      "type": "function"
    },
    {
      "inputs": [
        {
          "internalType": "string",
          "name": "name",
          "type": "string"
        },
        {
          "internalType": "string",
          "name": "speciality",
          "type": "string"
        },
        {
          "internalType": "uint256",
          "name": "fees",
          "type": "uint256"
        }
      ],
      "name": "registerDoctor",
      "outputs": [],
      "stateMutability": "nonpayable",
      "type": "function"
    },
    {
      "inputs": [
        {
          "internalType": "string",
          "name": "name",
          "type": "string"
        }
      ],
      "name": "registerPatient",
      "outputs": [],
      "stateMutability": "nonpayable",
      "type": "function"
    },
    {
      "inputs": [
        {
          "internalType": "uint256",
          "name": "tokenAmount",
          "type": "uint256"
        }
      ],
      "name": "withdrawTokens",
      "outputs": [],
      "stateMutability": "nonpayable",
      "type": "function"
    }
  ],
  "bytecode": "0x60806040523480156200001157600080fd5b50604051620024e8380380620024e88339818101604052810190620000379190620000e8565b806000806101000a81548173ffffffffffffffffffffffffffffffffffffffff021916908373ffffffffffffffffffffffffffffffffffffffff160217905550506200011a565b600080fd5b600073ffffffffffffffffffffffffffffffffffffffff82169050919050565b6000620000b08262000083565b9050919050565b620000c281620000a3565b8114620000ce57600080fd5b50565b600081519050620000e281620000b7565b92915050565b6000602082840312156200010157620001006200007e565b5b60006200011184828501620000d1565b91505092915050565b6123be806200012a6000396000f3fe608060405234801561001057600080fd5b50600436106100a95760003560e01c8063869c9eaf11610071578063869c9eaf1461016957806387446b6e14610185578063a9583c22146101a1578063b1f8a653146101d6578063c6b0ac85146101f2578063ee424df514610210576100a9565b80630869cfbc146100ae578063315a095d146100df57806331dfc91b146100fb5780633ec6b07e1461012f57806382a7fa4a1461014b575b600080fd5b6100c860048036038101906100c39190611328565b610240565b6040516100d69291906113f4565b60405180910390f35b6100f960048036038101906100f4919061145a565b61030c565b005b6101156004803603810190610110919061145a565b61060e565b6040516101269594939291906114b1565b60405180910390f35b610149600480360381019061014491906117f5565b610691565b005b6101536109d3565b6040516101609190611851565b60405180910390f35b610183600480360381019061017e919061186c565b6109d9565b005b61019f600480360381019061019a91906118b5565b610aea565b005b6101bb60048036038101906101b69190611328565b610cea565b6040516101cd96959493929190611940565b60405180910390f35b6101f060048036038101906101eb91906119af565b610e63565b005b6101fa6111b5565b6040516102079190611a4e565b60405180910390f35b61022a60048036038101906102259190611328565b6111d9565b6040516102379190611851565b60405180910390f35b60026020528060005260406000206000915090508060000160009054906101000a900473ffffffffffffffffffffffffffffffffffffffff169080600101805461028990611a98565b80601f01602080910402602001604051908101604052809291908181526020018280546102b590611a98565b80156103025780601f106102d757610100808354040283529160200191610302565b820191906000526020600020905b8154815290600101906020018083116102e557829003601f168201915b5050505050905082565b600160003373ffffffffffffffffffffffffffffffffffffffff1673ffffffffffffffffffffffffffffffffffffffff16815260200190815260200160002060050160009054906101000a900460ff1661039b576040517f08c379a000000000000000000000000000000000000000000000000000000000815260040161039290611b15565b60405180910390fd5b6000600160003373ffffffffffffffffffffffffffffffffffffffff1673ffffffffffffffffffffffffffffffffffffffff16815260200190815260200160002090508181600401541015610425576040517f08c379a000000000000000000000000000000000000000000000000000000000815260040161041c90611b81565b60405180910390fd5b60006064836104349190611bff565b90508282600401600082825461044a9190611c30565b9250508190555060008054906101000a900473ffffffffffffffffffffffffffffffffffffffff1673ffffffffffffffffffffffffffffffffffffffff1663a9059cbb60008054906101000a900473ffffffffffffffffffffffffffffffffffffffff16856040518363ffffffff1660e01b81526004016104cc929190611c64565b6020604051808303816000875af11580156104eb573d6000803e3d6000fd5b505050506040513d601f19601f8201168201806040525081019061050f9190611cb9565b61054e576040517f08c379a000000000000000000000000000000000000000000000000000000000815260040161054590611d32565b60405180910390fd5b8160000160009054906101000a900473ffffffffffffffffffffffffffffffffffffffff1673ffffffffffffffffffffffffffffffffffffffff166108fc829081150290604051600060405180830381858888f193505050501580156105b8573d6000803e3d6000fd5b503373ffffffffffffffffffffffffffffffffffffffff167fffe903c0abe6b2dbb2f3474ef43d7a3c1fca49e5a774453423ca8e1952aabffa8483604051610601929190611d52565b60405180910390a2505050565b60036020528060005260406000206000915090508060000154908060010160009054906101000a900473ffffffffffffffffffffffffffffffffffffffff16908060020160009054906101000a900473ffffffffffffffffffffffffffffffffffffffff16908060040154908060050160009054906101000a900460ff16905085565b600160003373ffffffffffffffffffffffffffffffffffffffff1673ffffffffffffffffffffffffffffffffffffffff16815260200190815260200160002060050160009054906101000a900460ff16610720576040517f08c379a000000000000000000000000000000000000000000000000000000000815260040161071790611b15565b60405180910390fd5b81600073ffffffffffffffffffffffffffffffffffffffff16600260008373ffffffffffffffffffffffffffffffffffffffff1673ffffffffffffffffffffffffffffffffffffffff16815260200190815260200160002060000160009054906101000a900473ffffffffffffffffffffffffffffffffffffffff1673ffffffffffffffffffffffffffffffffffffffff16036107f2576040517f08c379a00000000000000000000000000000000000000000000000000000000081526004016107e990611dc7565b60405180910390fd5b6004600081548092919061080590611de7565b9190505550600060036000600454815260200190815260200160002090506004548160000181905550338160010160006101000a81548173ffffffffffffffffffffffffffffffffffffffff021916908373ffffffffffffffffffffffffffffffffffffffff160217905550838160020160006101000a81548173ffffffffffffffffffffffffffffffffffffffff021916908373ffffffffffffffffffffffffffffffffffffffff16021790555042816004018190555060018160050160006101000a81548160ff02191690831515021790555060005b835181101561098f57816003018482815181106108fd576108fc611e2f565b5b6020026020010151908060018154018082558091505060019003906000526020600020906004020160009091909190915060008201518160000190816109439190612000565b5060208201518160010190816109599190612000565b506040820151816002015560608201518160030190816109799190612000565b505050808061098790611de7565b9150506108dd565b507f1edcbf9718b77af1f5d768ccbcd29153a70c0962e24432e5de461f22dbcd313760045433866040516109c5939291906120d2565b60405180910390a150505050565b60045481565b6000815111610a1d576040517f08c379a0000000000000000000000000000000000000000000000000000000008152600401610a1490612155565b60405180910390fd5b60405180604001604052803373ffffffffffffffffffffffffffffffffffffffff16815260200182815250600260003373ffffffffffffffffffffffffffffffffffffffff1673ffffffffffffffffffffffffffffffffffffffff16815260200190815260200160002060008201518160000160006101000a81548173ffffffffffffffffffffffffffffffffffffffff021916908373ffffffffffffffffffffffffffffffffffffffff1602179055506020820151816001019081610ae39190612000565b5090505050565b600160003373ffffffffffffffffffffffffffffffffffffffff1673ffffffffffffffffffffffffffffffffffffffff16815260200190815260200160002060050160009054906101000a900460ff1615610b7a576040517f08c379a0000000000000000000000000000000000000000000000000000000008152600401610b71906121c1565b60405180910390fd5b6040518060c001604052803373ffffffffffffffffffffffffffffffffffffffff1681526020018481526020018381526020018281526020016000815260200160011515815250600160003373ffffffffffffffffffffffffffffffffffffffff1673ffffffffffffffffffffffffffffffffffffffff16815260200190815260200160002060008201518160000160006101000a81548173ffffffffffffffffffffffffffffffffffffffff021916908373ffffffffffffffffffffffffffffffffffffffff1602179055506020820151816001019081610c5c9190612000565b506040820151816002019081610c729190612000565b50606082015181600301556080820151816004015560a08201518160050160006101000a81548160ff0219169083151502179055509050507f1f5e33d2573da99a901bca6b2c06d5f12b75dfd179bcbbe46a5216cf8349ee6b338483604051610cdd939291906121e1565b60405180910390a1505050565b60016020528060005260406000206000915090508060000160009054906101000a900473ffffffffffffffffffffffffffffffffffffffff1690806001018054610d3390611a98565b80601f0160208091040260200160405190810160405280929190818152602001828054610d5f90611a98565b8015610dac5780601f10610d8157610100808354040283529160200191610dac565b820191906000526020600020905b815481529060010190602001808311610d8f57829003601f168201915b505050505090806002018054610dc190611a98565b80601f0160208091040260200160405190810160405280929190818152602001828054610ded90611a98565b8015610e3a5780601f10610e0f57610100808354040283529160200191610e3a565b820191906000526020600020905b815481529060010190602001808311610e1d57829003601f168201915b5050505050908060030154908060040154908060050160009054906101000a900460ff16905086565b81600160008273ffffffffffffffffffffffffffffffffffffffff1673ffffffffffffffffffffffffffffffffffffffff16815260200190815260200160002060050160009054906101000a900460ff16610ef3576040517f08c379a0000000000000000000000000000000000000000000000000000000008152600401610eea90612291565b60405180910390fd5b33600073ffffffffffffffffffffffffffffffffffffffff16600260008373ffffffffffffffffffffffffffffffffffffffff1673ffffffffffffffffffffffffffffffffffffffff16815260200190815260200160002060000160009054906101000a900473ffffffffffffffffffffffffffffffffffffffff1673ffffffffffffffffffffffffffffffffffffffff1603610fc5576040517f08c379a0000000000000000000000000000000000000000000000000000000008152600401610fbc90611dc7565b60405180910390fd5b6000600160008673ffffffffffffffffffffffffffffffffffffffff1673ffffffffffffffffffffffffffffffffffffffff1681526020019081526020016000209050806003015484101561104f576040517f08c379a0000000000000000000000000000000000000000000000000000000008152600401611046906122fd565b60405180910390fd5b60008054906101000a900473ffffffffffffffffffffffffffffffffffffffff1673ffffffffffffffffffffffffffffffffffffffff166323b872dd3330876040518463ffffffff1660e01b81526004016110ac9392919061231d565b6020604051808303816000875af11580156110cb573d6000803e3d6000fd5b505050506040513d601f19601f820116820180604052508101906110ef9190611cb9565b61112e576040517f08c379a000000000000000000000000000000000000000000000000000000000815260040161112590611d32565b60405180910390fd5b838160040160008282546111429190612354565b925050819055508473ffffffffffffffffffffffffffffffffffffffff163373ffffffffffffffffffffffffffffffffffffffff167f45fdc265dc29885b9a485766b03e70978440d38c7c328ee0a14fa40c76c6af54866040516111a69190611851565b60405180910390a35050505050565b60008054906101000a900473ffffffffffffffffffffffffffffffffffffffff1681565b600081600160008273ffffffffffffffffffffffffffffffffffffffff1673ffffffffffffffffffffffffffffffffffffffff16815260200190815260200160002060050160009054906101000a900460ff1661126b576040517f08c379a000000000000000000000000000000000000000000000000000000000815260040161126290612291565b60405180910390fd5b600160008473ffffffffffffffffffffffffffffffffffffffff1673ffffffffffffffffffffffffffffffffffffffff16815260200190815260200160002060030154915050919050565b6000604051905090565b600080fd5b600080fd5b600073ffffffffffffffffffffffffffffffffffffffff82169050919050565b60006112f5826112ca565b9050919050565b611305816112ea565b811461131057600080fd5b50565b600081359050611322816112fc565b92915050565b60006020828403121561133e5761133d6112c0565b5b600061134c84828501611313565b91505092915050565b61135e816112ea565b82525050565b600081519050919050565b600082825260208201905092915050565b60005b8381101561139e578082015181840152602081019050611383565b60008484015250505050565b6000601f19601f8301169050919050565b60006113c682611364565b6113d0818561136f565b93506113e0818560208601611380565b6113e9816113aa565b840191505092915050565b60006040820190506114096000830185611355565b818103602083015261141b81846113bb565b90509392505050565b6000819050919050565b61143781611424565b811461144257600080fd5b50565b6000813590506114548161142e565b92915050565b6000602082840312156114705761146f6112c0565b5b600061147e84828501611445565b91505092915050565b61149081611424565b82525050565b60008115159050919050565b6114ab81611496565b82525050565b600060a0820190506114c66000830188611487565b6114d36020830187611355565b6114e06040830186611355565b6114ed6060830185611487565b6114fa60808301846114a2565b9695505050505050565b600080fd5b7f4e487b7100000000000000000000000000000000000000000000000000000000600052604160045260246000fd5b611541826113aa565b810181811067ffffffffffffffff821117156115605761155f611509565b5b80604052505050565b60006115736112b6565b905061157f8282611538565b919050565b600067ffffffffffffffff82111561159f5761159e611509565b5b602082029050602081019050919050565b600080fd5b600080fd5b600080fd5b600080fd5b600067ffffffffffffffff8211156115df576115de611509565b5b6115e8826113aa565b9050602081019050919050565b82818337600083830152505050565b6000611617611612846115c4565b611569565b905082815260208101848484011115611633576116326115bf565b5b61163e8482856115f5565b509392505050565b600082601f83011261165b5761165a611504565b5b813561166b848260208601611604565b91505092915050565b60006080828403121561168a576116896115b5565b5b6116946080611569565b9050600082013567ffffffffffffffff8111156116b4576116b36115ba565b5b6116c084828501611646565b600083015250602082013567ffffffffffffffff8111156116e4576116e36115ba565b5b6116f084828501611646565b602083015250604061170484828501611445565b604083015250606082013567ffffffffffffffff811115611728576117276115ba565b5b61173484828501611646565b60608301525092915050565b600061175361174e84611584565b611569565b90508083825260208201905060208402830185811115611776576117756115b0565b5b835b818110156117bd57803567ffffffffffffffff81111561179b5761179a611504565b5b8086016117a88982611674565b85526020850194505050602081019050611778565b5050509392505050565b600082601f8301126117dc576117db611504565b5b81356117ec848260208601611740565b91505092915050565b6000806040838503121561180c5761180b6112c0565b5b600061181a85828601611313565b925050602083013567ffffffffffffffff81111561183b5761183a6112c5565b5b611847858286016117c7565b9150509250929050565b60006020820190506118666000830184611487565b92915050565b600060208284031215611882576118816112c0565b5b600082013567ffffffffffffffff8111156118a05761189f6112c5565b5b6118ac84828501611646565b91505092915050565b6000806000606084860312156118ce576118cd6112c0565b5b600084013567ffffffffffffffff8111156118ec576118eb6112c5565b5b6118f886828701611646565b935050602084013567ffffffffffffffff811115611919576119186112c5565b5b61192586828701611646565b925050604061193686828701611445565b9150509250925092565b600060c0820190506119556000830189611355565b818103602083015261196781886113bb565b9050818103604083015261197b81876113bb565b905061198a6060830186611487565b6119976080830185611487565b6119a460a08301846114a2565b979650505050505050565b600080604083850312156119c6576119c56112c0565b5b60006119d485828601611313565b92505060206119e585828601611445565b9150509250929050565b6000819050919050565b6000611a14611a0f611a0a846112ca565b6119ef565b6112ca565b9050919050565b6000611a26826119f9565b9050919050565b6000611a3882611a1b565b9050919050565b611a4881611a2d565b82525050565b6000602082019050611a636000830184611a3f565b92915050565b7f4e487b7100000000000000000000000000000000000000000000000000000000600052602260045260246000fd5b60006002820490506001821680611ab057607f821691505b602082108103611ac357611ac2611a69565b5b50919050565b7f4e6f74206120766572696669656420646f63746f720000000000000000000000600082015250565b6000611aff60158361136f565b9150611b0a82611ac9565b602082019050919050565b60006020820190508181036000830152611b2e81611af2565b9050919050565b7f496e73756666696369656e7420746f6b656e2062616c616e6365000000000000600082015250565b6000611b6b601a8361136f565b9150611b7682611b35565b602082019050919050565b60006020820190508181036000830152611b9a81611b5e565b9050919050565b7f4e487b7100000000000000000000000000000000000000000000000000000000600052601260045260246000fd5b7f4e487b7100000000000000000000000000000000000000000000000000000000600052601160045260246000fd5b6000611c0a82611424565b9150611c1583611424565b925082611c2557611c24611ba1565b5b828204905092915050565b6000611c3b82611424565b9150611c4683611424565b9250828203905081811115611c5e57611c5d611bd0565b5b92915050565b6000604082019050611c796000830185611355565b611c866020830184611487565b9392505050565b611c9681611496565b8114611ca157600080fd5b50565b600081519050611cb381611c8d565b92915050565b600060208284031215611ccf57611cce6112c0565b5b6000611cdd84828501611ca4565b91505092915050565b7f546f6b656e207472616e73666572206661696c65640000000000000000000000600082015250565b6000611d1c60158361136f565b9150611d2782611ce6565b602082019050919050565b60006020820190508181036000830152611d4b81611d0f565b9050919050565b6000604082019050611d676000830185611487565b611d746020830184611487565b9392505050565b7f50617469656e74206973206e6f74207265676973746572656400000000000000600082015250565b6000611db160198361136f565b9150611dbc82611d7b565b602082019050919050565b60006020820190508181036000830152611de081611da4565b9050919050565b6000611df282611424565b91507fffffffffffffffffffffffffffffffffffffffffffffffffffffffffffffffff8203611e2457611e23611bd0565b5b600182019050919050565b7f4e487b7100000000000000000000000000000000000000000000000000000000600052603260045260246000fd5b60008190508160005260206000209050919050565b60006020601f8301049050919050565b600082821b905092915050565b600060088302611ec07fffffffffffffffffffffffffffffffffffffffffffffffffffffffffffffffff82611e83565b611eca8683611e83565b95508019841693508086168417925050509392505050565b6000611efd611ef8611ef384611424565b6119ef565b611424565b9050919050565b6000819050919050565b611f1783611ee2565b611f2b611f2382611f04565b848454611e90565b825550505050565b600090565b611f40611f33565b611f4b818484611f0e565b505050565b5b81811015611f6f57611f64600082611f38565b600181019050611f51565b5050565b601f821115611fb457611f8581611e5e565b611f8e84611e73565b81016020851015611f9d578190505b611fb1611fa985611e73565b830182611f50565b50505b505050565b600082821c905092915050565b6000611fd760001984600802611fb9565b1980831691505092915050565b6000611ff08383611fc6565b9150826002028217905092915050565b61200982611364565b67ffffffffffffffff81111561202257612021611509565b5b61202c8254611a98565b612037828285611f73565b600060209050601f83116001811461206a5760008415612058578287015190505b6120628582611fe4565b8655506120ca565b601f19841661207886611e5e565b60005b828110156120a05784890151825560018201915060208501945060208101905061207b565b868310156120bd57848901516120b9601f891682611fc6565b8355505b6001600288020188555050505b505050505050565b60006060820190506120e76000830186611487565b6120f46020830185611355565b6121016040830184611355565b949350505050565b7f4e616d6520726571756972656400000000000000000000000000000000000000600082015250565b600061213f600d8361136f565b915061214a82612109565b602082019050919050565b6000602082019050818103600083015261216e81612132565b9050919050565b7f446f63746f7220616c7265616479207265676973746572656400000000000000600082015250565b60006121ab60198361136f565b91506121b682612175565b602082019050919050565b600060208201905081810360008301526121da8161219e565b9050919050565b60006060820190506121f66000830186611355565b818103602083015261220881856113bb565b90506122176040830184611487565b949350505050565b7f446f63746f72206973206e6f742072656769737465726564206f72207665726960008201527f6669656400000000000000000000000000000000000000000000000000000000602082015250565b600061227b60248361136f565b91506122868261221f565b604082019050919050565b600060208201905081810360008301526122aa8161226e565b9050919050565b7f496e73756666696369656e74207061796d656e7420616d6f756e740000000000600082015250565b60006122e7601b8361136f565b91506122f2826122b1565b602082019050919050565b60006020820190508181036000830152612316816122da565b9050919050565b60006060820190506123326000830186611355565b61233f6020830185611355565b61234c6040830184611487565b949350505050565b600061235f82611424565b915061236a83611424565b925082820190508082111561238257612381611bd0565b5b9291505056fea26469706673582212208da03c90189bc41840c88e5a52b2626a0a832945aa6e8710c5668a13695f552f64736f6c63430008140033",
  "linkReferences": {},
  "deployedLinkReferences": {}
}